{
  "_format": "hh-sol-artifact-1",
  "contractName": "Count",
  "sourceName": "contracts/Count.sol",
  "abi": [
    {
      "anonymous": false,
      "inputs": [
        {
          "indexed": false,
          "internalType": "uint256",
          "name": "count",
          "type": "uint256"
        }
      ],
      "name": "decreased",
      "type": "event"
    },
    {
      "anonymous": false,
      "inputs": [
        {
          "indexed": false,
          "internalType": "uint256",
          "name": "count",
          "type": "uint256"
        }
      ],
      "name": "increased",
      "type": "event"
    },
    {
      "anonymous": false,
      "inputs": [
        {
          "indexed": false,
          "internalType": "uint256",
          "name": "count",
          "type": "uint256"
        }
      ],
      "name": "reset",
      "type": "event"
    },
    {
      "inputs": [],
      "name": "count",
      "outputs": [
        {
          "internalType": "uint256",
          "name": "",
          "type": "uint256"
        }
      ],
      "stateMutability": "view",
      "type": "function"
    },
    {
      "inputs": [],
      "name": "decreaseCount",
      "outputs": [],
      "stateMutability": "nonpayable",
      "type": "function"
    },
    {
      "inputs": [],
      "name": "getBalance",
      "outputs": [
        {
          "internalType": "uint256",
          "name": "",
          "type": "uint256"
        }
      ],
      "stateMutability": "view",
      "type": "function"
    },
    {
      "inputs": [],
      "name": "increaseCount",
      "outputs": [],
      "stateMutability": "nonpayable",
      "type": "function"
    },
    {
      "inputs": [],
      "name": "resetCount",
      "outputs": [],
      "stateMutability": "nonpayable",
      "type": "function"
    }
  ],
  "bytecode": "0x608060405234801561001057600080fd5b50610370806100206000396000f3fe608060405234801561001057600080fd5b50600436106100575760003560e01c806306661abd1461005c57806312065fe01461007a578063abd1b73d14610098578063e834cbb3146100a2578063fd895292146100ac575b600080fd5b6100646100b6565b604051610071919061020b565b60405180910390f35b6100826100bc565b60405161008f919061020b565b60405180910390f35b6100a06100c4565b005b6100aa610118565b005b6100b46101b0565b005b60005481565b600047905090565b60016000808282546100d69190610255565b925050819055507f92ec03bb85fd263430f3aa81ad5515479a48cc0468294da5112191a0fb2611a160005460405161010e919061020b565b60405180910390a1565b600080541161015c576040517f08c379a0000000000000000000000000000000000000000000000000000000008152600401610153906102e6565b60405180910390fd5b600160008082825461016e9190610306565b925050819055507fc9d5a0a3719e1c0e2f20c312e49814b19dc6c2bc5b6f8a6410c68e018c6e3ba56000546040516101a6919061020b565b60405180910390a1565b600080819055507f310bd74b1bcdaacf16f6a4234577ac20217c4dd976ab40b2e67577604855f5066000546040516101e8919061020b565b60405180910390a1565b6000819050919050565b610205816101f2565b82525050565b600060208201905061022060008301846101fc565b92915050565b7f4e487b7100000000000000000000000000000000000000000000000000000000600052601160045260246000fd5b6000610260826101f2565b915061026b836101f2565b925082820190508082111561028357610282610226565b5b92915050565b600082825260208201905092915050565b7f436f756e742063616e6e6f74206265206c657373207468616e20300000000000600082015250565b60006102d0601b83610289565b91506102db8261029a565b602082019050919050565b600060208201905081810360008301526102ff816102c3565b9050919050565b6000610311826101f2565b915061031c836101f2565b925082820390508181111561033457610333610226565b5b9291505056fea264697066735822122074eb7442a7fee5493c6e1a20caaeb5e7b4b12e117d5674d9e32bb0ffc3970a2a64736f6c63430008110033",
  "linkReferences": {},
  "deployedLinkReferences": {}
}